:03000000020100FA
:03000B000204EA02
:030013000205C41F
:03001B0002057566
:1001000012077EC2B1D2B37908C2B4D2B4D9FA759B
:1001100081507F007E007D967C007B007A00790014
:1001200078307530007531007532007533007534E4
:10013000C87535197536007537007538037539007F
:10014000753A00753B00753C00753D00753E0175C4
:100150003F1F75401FC2D5C2D1C200C201C202C238
:1001600003C204C2051201E930D5FA10D10280564B
:10017000753803120226753F1F75401FE53175F073
:100180000AA4253075F0028475F00A8485F03A756A
:10019000F010A4253AF53AE53375F00AA425327536
:1001A000F00284F53CA9F0B90106E53A2430F53AAD
:1001B00075F00AE53C8485F03B75F010A4253BF50D
:1001C0003BC20210D19F1203E2300208BB9905BA6C
:1001D0005902800830D5EF10D1EC8089C28C12040E
:1001E0006F30D5F810D18980F3759000C2D5E854EE
:1001F0000FC42323F9E580543F49F580E6900700BA
:1002000093F5901204D908E8B434DE759000783084
:100210007C061204D9DCFB30D50BBB0008BA000504
:1002200020D102C2D522C2D5759000E8540FC42354
:1002300023F9E580543F49F580E8540FB53814158B
:0B02400034E534C39464400B7590005B
:10024B00B49C0C7534C8415AE690070093F5901294
:10025B0004D908E8B434C675900078307C061204D3
:10026B00D9DCFBE539704353A0F0E5A0B4F00520D1
:10027B00D15780A91201E91201E9E5A0B4F002807F
:10028B009C30A40930A52530A64130A75B43A00FB5
:10029B00C2A030A470D2A0C2A130A46FD2A1C2A2BE
:1002AB0030A46ED2A2C2A330A46D618543A00FC24D
:1002BB00A030A569D2A0C2A130A568D2A1C2A2303C
:1002CB00A567D2A2C2A330A56661DB43A00FC2A073
:1002DB0030A662D2A0C2A130A661D2A1C2A230A622
:1002EB0060D2A2C2A330A65F43A00FC2A030A75D0D
:1002FB00D2A0C2A130A75CD2A1C2A230A75BD2A26E
:10030B00C2A330A75A753700020372753701020377
:10031B007275370202037275370302037275370465
:10032B000203727537050203727537060203727585
:10033B003707020372753708020372753709020318
:10034B007275370E02038575370E02038575370EEE
:10035B0002038575370E02038575370E020385750B
:10036B00370E0203854128E538B4010BE537B40598
:10037B000280044002800375390153A0F0E5A0B45C
:10038B00F0E3753900E537B40E0280D9E53860101B
:10039B00B40319853733E537C453030F4203802663
:1003AB00853730E5375302F04202801AB4020C85D0
:0B03BB003732E5375303F04203800B9C
:1003C600853731E537C453020F42021538E538B494
:1003D600FF0375380330D59230D18F22D28C20029C
:1003E6000DBB0105BA0002D2B1BB002E803AE53E34
:1003F600B40205753E00C280BB0038BA0135D2B1E1
:100406008031EBB53B06EAB53A02D2B1BB0024BA5D
:100416000021D202D2B1C2808019E53DB403057530
:100426003D00C28080DC80B4EA6004D2038002C250
:100436000380CF759000C2D5E8540FC42323F9E595
:1004460080543F49F580E690070093F5901204D951
:10045600D28C75900008E8B434D97590007830795C
:10046600061204D9D28CD9F9227590007A007B0045
:10047600753000753100753200753300D2B1C28017
:10048600C2D5E8540FC42323F9E580543F49F580CB
:10049600E890070093F5901204D908E8B434CA75B9
:1004A600900078307C061204D9DCFB20D102C2D53C
:1004B60022C0E07FFADF03D0E02275363CD536FD58
:1004C60080F3C0E07F19DF03D0E02275363CD536D5
:1004D600FD80F3C0E07FA7DF03D0E022753603D5A9
:1004E60036FD80F3C28C758C0F758AB530031515F1
:1004F60040E540B40105853F40B205200504D280A1
:100506008002C280E53514F535B40062D28CB2049F
:10051600300206053EC203800C300307300408157E
:100526003F8004053DD280759000C2B17535192013
:100536000229BA00097A59EB2499D4FB8005EA24EA
:1005460099D4FAEA540FF530EA54F0C4F531EB5475
:100556000FF532EB54F0C4F5338013BA59097A001B
:10056600EB2401D4FB8005EA2401D4FA80D532C2FB
:100576008E200008BD9612208102D200758DC475AA
:100586008B30208110DD0680087D9680EAD20080BF
:1005960027D2018023A2005007D2B11204D9C2B1DA
:1005A60092D5A201500BC280D2B11204C8D280C229
:1005B600B192D1C3C200C2015380FFD2AA32C2AAED
:0505C600D28ED281324B
:0A070000FC60DAF266B6BEE0FEF619
:10073000017A2A9E53D9BF75D90022758911758E09
:1007400001758AB4758BF7758C0F758DC275CAF0FB
:1007500075CCF07593DC7595DC2275F1F375A4CD3D
:1007600075A5FF75A60F75A70275D40C75E240221A
:1007700075B2812275B82E75E41475A8AE221207E1
:0E0780003412073B12075A1207701207742238
:00000001FF
